{
  "_format": "hh-sol-artifact-1",
  "contractName": "DecentralizedPasswordStorage",
  "sourceName": "contracts/DecentralizedPasswordStorage.sol",
  "abi": [
    {
      "anonymous": false,
      "inputs": [
        {
          "indexed": true,
          "internalType": "address",
          "name": "user",
          "type": "address"
        }
      ],
      "name": "PasswordStored",
      "type": "event"
    },
    {
      "anonymous": false,
      "inputs": [
        {
          "indexed": true,
          "internalType": "address",
          "name": "user",
          "type": "address"
        }
      ],
      "name": "PasswordUpdated",
      "type": "event"
    },
    {
      "inputs": [],
      "name": "getPasswordHash",
      "outputs": [
        {
          "internalType": "bytes32",
          "name": "",
          "type": "bytes32"
        }
      ],
      "stateMutability": "view",
      "type": "function"
    },
    {
      "inputs": [
        {
          "internalType": "bytes32",
          "name": "_encryptedPasswordHash",
          "type": "bytes32"
        }
      ],
      "name": "storePassword",
      "outputs": [],
      "stateMutability": "nonpayable",
      "type": "function"
    },
    {
      "inputs": [
        {
          "internalType": "bytes32",
          "name": "_newEncryptedPasswordHash",
          "type": "bytes32"
        }
      ],
      "name": "updatePassword",
      "outputs": [],
      "stateMutability": "nonpayable",
      "type": "function"
    }
  ],
  "bytecode": "0x6080604052348015600f57600080fd5b506105bc8061001f6000396000f3fe608060405234801561001057600080fd5b50600436106100415760003560e01c8063047cced3146100465780632203a5221461006457806362be6b6b14610080575b600080fd5b61004e61009c565b60405161005b91906103fe565b60405180910390f35b61007e6004803603810190610079919061044a565b610173565b005b61009a6004803603810190610095919061044a565b61028d565b005b60008060003373ffffffffffffffffffffffffffffffffffffffff1673ffffffffffffffffffffffffffffffffffffffff16815260200190815260200160002060010160009054906101000a900460ff1661012c576040517f08c379a0000000000000000000000000000000000000000000000000000000008152600401610123906104d4565b60405180910390fd5b6000803373ffffffffffffffffffffffffffffffffffffffff1673ffffffffffffffffffffffffffffffffffffffff16815260200190815260200160002060000154905090565b6000803373ffffffffffffffffffffffffffffffffffffffff1673ffffffffffffffffffffffffffffffffffffffff16815260200190815260200160002060010160009054906101000a900460ff16610201576040517f08c379a00000000000000000000000000000000000000000000000000000000081526004016101f8906104d4565b60405180910390fd5b806000803373ffffffffffffffffffffffffffffffffffffffff1673ffffffffffffffffffffffffffffffffffffffff168152602001908152602001600020600001819055503373ffffffffffffffffffffffffffffffffffffffff167f59d5e5502067ddbcd17d342059dce1fd469d88df519507513e7b392a068a936160405160405180910390a250565b6000803373ffffffffffffffffffffffffffffffffffffffff1673ffffffffffffffffffffffffffffffffffffffff16815260200190815260200160002060010160009054906101000a900460ff161561031c576040517f08c379a000000000000000000000000000000000000000000000000000000000815260040161031390610566565b60405180910390fd5b6040518060400160405280828152602001600115158152506000803373ffffffffffffffffffffffffffffffffffffffff1673ffffffffffffffffffffffffffffffffffffffff1681526020019081526020016000206000820151816000015560208201518160010160006101000a81548160ff0219169083151502179055509050503373ffffffffffffffffffffffffffffffffffffffff167fc204fec4fed12d89a34e59340b9f4cc8a9e830daf5d856796d9f5d10ca7a278f60405160405180910390a250565b6000819050919050565b6103f8816103e5565b82525050565b600060208201905061041360008301846103ef565b92915050565b600080fd5b610427816103e5565b811461043257600080fd5b50565b6000813590506104448161041e565b92915050565b6000602082840312156104605761045f610419565b5b600061046e84828501610435565b91505092915050565b600082825260208201905092915050565b7f5573657220646f6573206e6f742065786973742e000000000000000000000000600082015250565b60006104be601483610477565b91506104c982610488565b602082019050919050565b600060208201905081810360008301526104ed816104b1565b9050919050565b7f5573657220616c7265616479206578697374732e20557365207570646174655060008201527f617373776f726420746f206d6f646966792e0000000000000000000000000000602082015250565b6000610550603283610477565b915061055b826104f4565b604082019050919050565b6000602082019050818103600083015261057f81610543565b905091905056fea26469706673582212206c0d95b0847ca079604d6cb72ee37b71522e1ac607ac2a80cb035323abd607d564736f6c634300081c0033",
  "linkReferences": {},
  "deployedLinkReferences": {}
}