{
  "contractName": "PermissionSystem",
  "abi": [
    {
      "anonymous": false,
      "inputs": [
        {
          "indexed": false,
          "internalType": "string",
          "name": "message",
          "type": "string"
        },
        {
          "indexed": false,
          "internalType": "bytes32",
          "name": "barcode",
          "type": "bytes32"
        }
      ],
      "name": "Debug",
      "type": "event"
    },
    {
      "anonymous": false,
      "inputs": [
        {
          "indexed": false,
          "internalType": "bytes32",
          "name": "barcode",
          "type": "bytes32"
        },
        {
          "indexed": false,
          "internalType": "string",
          "name": "studentID",
          "type": "string"
        },
        {
          "indexed": false,
          "internalType": "uint256",
          "name": "startDate",
          "type": "uint256"
        },
        {
          "indexed": false,
          "internalType": "uint256",
          "name": "endDate",
          "type": "uint256"
        }
      ],
      "name": "PermissionCreated",
      "type": "event"
    },
    {
      "inputs": [
        {
          "internalType": "bytes32",
          "name": "",
          "type": "bytes32"
        }
      ],
      "name": "permissions",
      "outputs": [
        {
          "internalType": "string",
          "name": "studentID",
          "type": "string"
        },
        {
          "internalType": "string",
          "name": "permissionType",
          "type": "string"
        },
        {
          "internalType": "uint256",
          "name": "startDate",
          "type": "uint256"
        },
        {
          "internalType": "uint256",
          "name": "endDate",
          "type": "uint256"
        },
        {
          "internalType": "bytes32",
          "name": "barcode",
          "type": "bytes32"
        },
        {
          "internalType": "bool",
          "name": "isValid",
          "type": "bool"
        }
      ],
      "stateMutability": "view",
      "type": "function",
      "constant": true
    },
    {
      "inputs": [
        {
          "internalType": "string",
          "name": "_studentID",
          "type": "string"
        },
        {
          "internalType": "string",
          "name": "_permissionType",
          "type": "string"
        },
        {
          "internalType": "uint256",
          "name": "_startDate",
          "type": "uint256"
        },
        {
          "internalType": "uint256",
          "name": "_endDate",
          "type": "uint256"
        }
      ],
      "name": "createPermission",
      "outputs": [
        {
          "internalType": "bytes32",
          "name": "",
          "type": "bytes32"
        }
      ],
      "stateMutability": "nonpayable",
      "type": "function"
    },
    {
      "inputs": [
        {
          "internalType": "bytes32",
          "name": "_barcode",
          "type": "bytes32"
        }
      ],
      "name": "validatePermission",
      "outputs": [
        {
          "internalType": "bool",
          "name": "",
          "type": "bool"
        }
      ],
      "stateMutability": "view",
      "type": "function",
      "constant": true
    }
  ],
  "bytecode": "0x608060405234801561001057600080fd5b50610c9e806100206000396000f3fe608060405234801561001057600080fd5b50600436106100415760003560e01c8063b4d2388f14610046578063c5124cdf1461007b578063fd17f864146100ab575b600080fd5b610060600480360381019061005b91906106c4565b6100db565b604051610072969594939291906109ba565b60405180910390f35b610095600480360381019061009091906106c4565b610234565b6040516100a29190610938565b60405180910390f35b6100c560048036038101906100c091906106ed565b6103e2565b6040516100d29190610953565b60405180910390f35b60006020528060005260406000206000915090508060000180546100fe90610b8f565b80601f016020809104026020016040519081016040528092919081815260200182805461012a90610b8f565b80156101775780601f1061014c57610100808354040283529160200191610177565b820191906000526020600020905b81548152906001019060200180831161015a57829003601f168201915b50505050509080600101805461018c90610b8f565b80601f01602080910402602001604051908101604052809291908181526020018280546101b890610b8f565b80156102055780601f106101da57610100808354040283529160200191610205565b820191906000526020600020905b8154815290600101906020018083116101e857829003601f168201915b5050505050908060020154908060030154908060040154908060050160009054906101000a900460ff16905086565b6000806000808481526020019081526020016000206040518060c001604052908160008201805461026490610b8f565b80601f016020809104026020016040519081016040528092919081815260200182805461029090610b8f565b80156102dd5780601f106102b2576101008083540402835291602001916102dd565b820191906000526020600020905b8154815290600101906020018083116102c057829003601f168201915b505050505081526020016001820180546102f690610b8f565b80601f016020809104026020016040519081016040528092919081815260200182805461032290610b8f565b801561036f5780601f106103445761010080835404028352916020019161036f565b820191906000526020600020905b81548152906001019060200180831161035257829003601f168201915b505050505081526020016002820154815260200160038201548152602001600482015481526020016005820160009054906101000a900460ff16151515158152505090508060a0015180156103c8575080606001514211155b156103d75760019150506103dd565b60009150505b919050565b6000428211610426576040517f08c379a000000000000000000000000000000000000000000000000000000000815260040161041d90610a85565b60405180910390fd5b60008584844260405160200161043f94939291906108ee565b6040516020818303038152906040528051906020012090507f9b727ad7a6d995527744fb3b7ccd68fd2d4a769c01209e041e1014abd3518113816040516104869190610a57565b60405180910390a160008060008381526020019081526020016000209050868160000190805190602001906104bc92919061058f565b50858160010190805190602001906104d592919061058f565b5084816002018190555083816003018190555081816004018190555060018160050160006101000a81548160ff0219169083151502179055507f9b727ad7a6d995527744fb3b7ccd68fd2d4a769c01209e041e1014abd35181138260405161053d9190610a29565b60405180910390a17f94c71a027d953a7641ea2b31c94495d24d043ca040d140b71e631fbee02be21a8288878760405161057a949392919061096e565b60405180910390a18192505050949350505050565b82805461059b90610b8f565b90600052602060002090601f0160209004810192826105bd5760008555610604565b82601f106105d657805160ff1916838001178555610604565b82800160010185558215610604579182015b828111156106035782518255916020019190600101906105e8565b5b5090506106119190610615565b5090565b5b8082111561062e576000816000905550600101610616565b5090565b600061064561064084610ad6565b610aa5565b90508281526020810184848401111561065d57600080fd5b610668848285610b4d565b509392505050565b60008135905061067f81610c3a565b92915050565b600082601f83011261069657600080fd5b81356106a6848260208601610632565b91505092915050565b6000813590506106be81610c51565b92915050565b6000602082840312156106d657600080fd5b60006106e484828501610670565b91505092915050565b6000806000806080858703121561070357600080fd5b600085013567ffffffffffffffff81111561071d57600080fd5b61072987828801610685565b945050602085013567ffffffffffffffff81111561074657600080fd5b61075287828801610685565b9350506040610763878288016106af565b9250506060610774878288016106af565b91505092959194509250565b61078981610b2d565b82525050565b61079881610b39565b82525050565b60006107a982610b06565b6107b38185610b11565b93506107c3818560208601610b5c565b6107cc81610c29565b840191505092915050565b60006107e282610b06565b6107ec8185610b22565b93506107fc818560208601610b5c565b80840191505092915050565b6000610815601183610b11565b91507f5065726d697373696f6e2073746f7265640000000000000000000000000000006000830152602082019050919050565b6000610855601283610b11565b91507f47656e65726174696e6720626172636f646500000000000000000000000000006000830152602082019050919050565b6000610895601e83610b11565b91507f456e642064617465206d75737420626520696e207468652066757475726500006000830152602082019050919050565b6108d181610b43565b82525050565b6108e86108e382610b43565b610bc1565b82525050565b60006108fa82876107d7565b915061090682866108d7565b60208201915061091682856108d7565b60208201915061092682846108d7565b60208201915081905095945050505050565b600060208201905061094d6000830184610780565b92915050565b6000602082019050610968600083018461078f565b92915050565b6000608082019050610983600083018761078f565b8181036020830152610995818661079e565b90506109a460408301856108c8565b6109b160608301846108c8565b95945050505050565b600060c08201905081810360008301526109d4818961079e565b905081810360208301526109e8818861079e565b90506109f760408301876108c8565b610a0460608301866108c8565b610a11608083018561078f565b610a1e60a0830184610780565b979650505050505050565b60006040820190508181036000830152610a4281610808565b9050610a51602083018461078f565b92915050565b60006040820190508181036000830152610a7081610848565b9050610a7f602083018461078f565b92915050565b60006020820190508181036000830152610a9e81610888565b9050919050565b6000604051905081810181811067ffffffffffffffff82111715610acc57610acb610bfa565b5b8060405250919050565b600067ffffffffffffffff821115610af157610af0610bfa565b5b601f19601f8301169050602081019050919050565b600081519050919050565b600082825260208201905092915050565b600081905092915050565b60008115159050919050565b6000819050919050565b6000819050919050565b82818337600083830152505050565b60005b83811015610b7a578082015181840152602081019050610b5f565b83811115610b89576000848401525b50505050565b60006002820490506001821680610ba757607f821691505b60208210811415610bbb57610bba610bcb565b5b50919050565b6000819050919050565b7f4e487b7100000000000000000000000000000000000000000000000000000000600052602260045260246000fd5b7f4e487b7100000000000000000000000000000000000000000000000000000000600052604160045260246000fd5b6000601f19601f8301169050919050565b610c4381610b39565b8114610c4e57600080fd5b50565b610c5a81610b43565b8114610c6557600080fd5b5056fea2646970667358221220fac2eead8f90134d5c1bf85c916ed4294b5d23afe30f3479e350270ed5fa027c64736f6c63430008000033",
  "immutableReferences": {},
  "source": "pragma solidity ^0.8.0;\r\n\r\ncontract PermissionSystem {\r\n    struct Permission {\r\n        string studentID;\r\n        string permissionType;\r\n        uint256 startDate;\r\n        uint256 endDate;\r\n        bytes32 barcode;\r\n        bool isValid;\r\n    }\r\n\r\n    mapping(bytes32 => Permission) public permissions;\r\n    event PermissionCreated(bytes32 barcode, string studentID, uint256 startDate, uint256 endDate);\r\n    event Debug(string message, bytes32 barcode);\r\n    \r\n    function createPermission(string memory _studentID, string memory _permissionType, uint256 _startDate, uint256 _endDate) public returns (bytes32) {\r\n        require(_endDate > block.timestamp, \"End date must be in the future\");\r\n        \r\n        bytes32 barcode = keccak256(abi.encodePacked(_studentID, _startDate, _endDate, block.timestamp));\r\n        \r\n        emit Debug(\"Generating barcode\", barcode);\r\n        \r\n        Permission storage newPermission = permissions[barcode];\r\n        newPermission.studentID = _studentID;\r\n        newPermission.permissionType = _permissionType;\r\n        newPermission.startDate = _startDate;\r\n        newPermission.endDate = _endDate;\r\n        newPermission.barcode = barcode;\r\n        newPermission.isValid = true;\r\n        \r\n        emit Debug(\"Permission stored\", barcode);\r\n        emit PermissionCreated(barcode, _studentID, _startDate, _endDate);\r\n        return barcode;\r\n    }\r\n    \r\n    function validatePermission(bytes32 _barcode) public view returns (bool) {\r\n        Permission memory perm = permissions[_barcode];\r\n        if (perm.isValid && block.timestamp <= perm.endDate) {\r\n            return true;\r\n        }\r\n        return false;\r\n    }\r\n}\r\n",
  "sourcePath": "C:\\Data\\Doc\\Sma 12\\2025\\PermissionLetter\\contracts\\PermissionSystem.sol",
  "compiler": {
    "name": "solc",
    "version": "0.8.0+commit.c7dfd78e.Emscripten.clang"
  },
  "schemaVersion": "3.4.16",
  "updatedAt": "2025-01-23T01:42:47.461Z",
  "networkType": "ethereum",
  "devdoc": {
    "kind": "dev",
    "methods": {},
    "version": 1
  },
  "userdoc": {
    "kind": "user",
    "methods": {},
    "version": 1
  }
}