{
  "contractName": "PermissionSystem",
  "abi": [
    {
      "anonymous": false,
      "inputs": [
        {
          "indexed": false,
          "internalType": "string",
          "name": "studentID",
          "type": "string"
        },
        {
          "indexed": false,
          "internalType": "uint256",
          "name": "startDate",
          "type": "uint256"
        },
        {
          "indexed": false,
          "internalType": "uint256",
          "name": "endDate",
          "type": "uint256"
        }
      ],
      "name": "PermissionCreated",
      "type": "event"
    },
    {
      "inputs": [
        {
          "internalType": "string",
          "name": "",
          "type": "string"
        }
      ],
      "name": "permissions",
      "outputs": [
        {
          "internalType": "string",
          "name": "studentID",
          "type": "string"
        },
        {
          "internalType": "string",
          "name": "permissionType",
          "type": "string"
        },
        {
          "internalType": "uint256",
          "name": "startDate",
          "type": "uint256"
        },
        {
          "internalType": "uint256",
          "name": "endDate",
          "type": "uint256"
        }
      ],
      "stateMutability": "view",
      "type": "function",
      "constant": true
    },
    {
      "inputs": [
        {
          "internalType": "string",
          "name": "_studentID",
          "type": "string"
        },
        {
          "internalType": "string",
          "name": "_permissionType",
          "type": "string"
        },
        {
          "internalType": "uint256",
          "name": "_startDate",
          "type": "uint256"
        },
        {
          "internalType": "uint256",
          "name": "_endDate",
          "type": "uint256"
        }
      ],
      "name": "createPermission",
      "outputs": [
        {
          "internalType": "string",
          "name": "",
          "type": "string"
        }
      ],
      "stateMutability": "nonpayable",
      "type": "function"
    },
    {
      "inputs": [
        {
          "internalType": "string",
          "name": "_permissionKey",
          "type": "string"
        }
      ],
      "name": "getPermission",
      "outputs": [
        {
          "internalType": "string",
          "name": "",
          "type": "string"
        },
        {
          "internalType": "string",
          "name": "",
          "type": "string"
        },
        {
          "internalType": "uint256",
          "name": "",
          "type": "uint256"
        },
        {
          "internalType": "uint256",
          "name": "",
          "type": "uint256"
        }
      ],
      "stateMutability": "view",
      "type": "function",
      "constant": true
    }
  ],
  "bytecode": "0x608060405234801561001057600080fd5b50610b0c806100206000396000f3fe608060405234801561001057600080fd5b50600436106100415760003560e01c8063752708fb14610046578063ddc46c6214610079578063fd17f864146100ac575b600080fd5b610060600480360381019061005b9190610623565b6100dc565b604051610070949392919061088f565b60405180910390f35b610093600480360381019061008e9190610623565b610232565b6040516100a3949392919061088f565b60405180910390f35b6100c660048036038101906100c19190610664565b6103c0565b6040516100d3919061086d565b60405180910390f35b60008180516020810182018051848252602083016020850120818352809550505050505060009150905080600001805461011590610a14565b80601f016020809104026020016040519081016040528092919081815260200182805461014190610a14565b801561018e5780601f106101635761010080835404028352916020019161018e565b820191906000526020600020905b81548152906001019060200180831161017157829003601f168201915b5050505050908060010180546101a390610a14565b80601f01602080910402602001604051908101604052809291908181526020018280546101cf90610a14565b801561021c5780601f106101f15761010080835404028352916020019161021c565b820191906000526020600020905b8154815290600101906020018083116101ff57829003601f168201915b5050505050908060020154908060030154905084565b606080600080600080866040516102499190610807565b908152602001604051809103902060405180608001604052908160008201805461027290610a14565b80601f016020809104026020016040519081016040528092919081815260200182805461029e90610a14565b80156102eb5780601f106102c0576101008083540402835291602001916102eb565b820191906000526020600020905b8154815290600101906020018083116102ce57829003601f168201915b5050505050815260200160018201805461030490610a14565b80601f016020809104026020016040519081016040528092919081815260200182805461033090610a14565b801561037d5780601f106103525761010080835404028352916020019161037d565b820191906000526020600020905b81548152906001019060200180831161036057829003601f168201915b5050505050815260200160028201548152602001600382015481525050905080600001518160200151826040015183606001519450945094509450509193509193565b6060428211610404576040517f08c379a00000000000000000000000000000000000000000000000000000000081526004016103fb90610920565b60405180910390fd5b600085848460405160200161041b9392919061081e565b604051602081830303815290604052905060405180608001604052808781526020018681526020018581526020018481525060008260405161045d9190610807565b90815260200160405180910390206000820151816000019080519060200190610487929190610503565b5060208201518160010190805190602001906104a4929190610503565b5060408201518160020155606082015181600301559050507f222ea4d49d6fe480dfc3842c3ca5f9bd155eed4586efb0578f2e253adc4bdb778685856040516104ef939291906108e2565b60405180910390a180915050949350505050565b82805461050f90610a14565b90600052602060002090601f0160209004810192826105315760008555610578565b82601f1061054a57805160ff1916838001178555610578565b82800160010185558215610578579182015b8281111561057757825182559160200191906001019061055c565b5b5090506105859190610589565b5090565b5b808211156105a257600081600090555060010161058a565b5090565b60006105b96105b484610971565b610940565b9050828152602081018484840111156105d157600080fd5b6105dc8482856109d2565b509392505050565b600082601f8301126105f557600080fd5b81356106058482602086016105a6565b91505092915050565b60008135905061061d81610abf565b92915050565b60006020828403121561063557600080fd5b600082013567ffffffffffffffff81111561064f57600080fd5b61065b848285016105e4565b91505092915050565b6000806000806080858703121561067a57600080fd5b600085013567ffffffffffffffff81111561069457600080fd5b6106a0878288016105e4565b945050602085013567ffffffffffffffff8111156106bd57600080fd5b6106c9878288016105e4565b93505060406106da8782880161060e565b92505060606106eb8782880161060e565b91505092959194509250565b6000610702826109a1565b61070c81856109ac565b935061071c8185602086016109e1565b61072581610aae565b840191505092915050565b600061073b826109a1565b61074581856109bd565b93506107558185602086016109e1565b80840191505092915050565b600061076e6001836109bd565b91507f2d000000000000000000000000000000000000000000000000000000000000006000830152600182019050919050565b60006107ae601e836109ac565b91507f456e642064617465206d75737420626520696e207468652066757475726500006000830152602082019050919050565b6107ea816109c8565b82525050565b6108016107fc826109c8565b610a46565b82525050565b60006108138284610730565b915081905092915050565b600061082a8286610730565b915061083582610761565b915061084182856107f0565b60208201915061085082610761565b915061085c82846107f0565b602082019150819050949350505050565b6000602082019050818103600083015261088781846106f7565b905092915050565b600060808201905081810360008301526108a981876106f7565b905081810360208301526108bd81866106f7565b90506108cc60408301856107e1565b6108d960608301846107e1565b95945050505050565b600060608201905081810360008301526108fc81866106f7565b905061090b60208301856107e1565b61091860408301846107e1565b949350505050565b60006020820190508181036000830152610939816107a1565b9050919050565b6000604051905081810181811067ffffffffffffffff8211171561096757610966610a7f565b5b8060405250919050565b600067ffffffffffffffff82111561098c5761098b610a7f565b5b601f19601f8301169050602081019050919050565b600081519050919050565b600082825260208201905092915050565b600081905092915050565b6000819050919050565b82818337600083830152505050565b60005b838110156109ff5780820151818401526020810190506109e4565b83811115610a0e576000848401525b50505050565b60006002820490506001821680610a2c57607f821691505b60208210811415610a4057610a3f610a50565b5b50919050565b6000819050919050565b7f4e487b7100000000000000000000000000000000000000000000000000000000600052602260045260246000fd5b7f4e487b7100000000000000000000000000000000000000000000000000000000600052604160045260246000fd5b6000601f19601f8301169050919050565b610ac8816109c8565b8114610ad357600080fd5b5056fea2646970667358221220be7a62b003eaa23bec5072b11979216531bcca1a5aed92ffd48cf4e15700a42d64736f6c63430008000033",
  "immutableReferences": {},
  "source": "// SPDX-License-Identifier: MIT\r\npragma solidity ^0.8.0;\r\n\r\ncontract PermissionSystem {\r\n    struct Permission {\r\n        string studentID;\r\n        string permissionType;\r\n        uint256 startDate;\r\n        uint256 endDate;\r\n    }\r\n\r\n    mapping(string => Permission) public permissions;\r\n    event PermissionCreated(string studentID, uint256 startDate, uint256 endDate);\r\n\r\n    function createPermission(\r\n        string memory _studentID,\r\n        string memory _permissionType,\r\n        uint256 _startDate,\r\n        uint256 _endDate\r\n    ) public returns (string memory) {\r\n        require(_endDate > block.timestamp, \"End date must be in the future\");\r\n\r\n        string memory permissionKey = string(abi.encodePacked(_studentID, \"-\", _startDate, \"-\", _endDate));\r\n\r\n        permissions[permissionKey] = Permission({\r\n            studentID: _studentID,\r\n            permissionType: _permissionType,\r\n            startDate: _startDate,\r\n            endDate: _endDate\r\n        });\r\n\r\n        emit PermissionCreated(_studentID, _startDate, _endDate);\r\n        return permissionKey;\r\n    }\r\n\r\n    function getPermission(string memory _permissionKey) public view returns (\r\n        string memory, string memory, uint256, uint256\r\n    ) {\r\n        Permission memory perm = permissions[_permissionKey];\r\n        return (perm.studentID, perm.permissionType, perm.startDate, perm.endDate);\r\n    }\r\n}\r\n",
  "sourcePath": "C:\\Data\\Doc\\Sma 12\\2025\\PermissionLetter\\contracts\\PermissionSystem.sol",
  "compiler": {
    "name": "solc",
    "version": "0.8.0+commit.c7dfd78e.Emscripten.clang"
  },
  "schemaVersion": "3.4.16",
  "updatedAt": "2025-02-06T06:16:52.013Z",
  "networkType": "ethereum",
  "devdoc": {
    "kind": "dev",
    "methods": {},
    "version": 1
  },
  "userdoc": {
    "kind": "user",
    "methods": {},
    "version": 1
  }
}